:020000040010EA
:1020000000D8FF3FFD7B1000397C10003B7C1000A6
:102010003D7C10003F7C1000417C1000000000005F
:10202000000000000000000000000000CD4D100086
:10203000457C100000000000374E10006D4E10006F
:10204000CD691000396B10004B7C100061641000EA
:102050004B7C10004B7C1000755710004B7C10001F
:102060004B7C10004B7C10004B7C10004B7C100014
:102070004B7C10004B7C10004B7C10004B7C100004
:102080004B7C10004B7C10004B7C10004B7C1000F4
:1020900000D8FF3FFD7B1000397C10003B7C100016
:1020A0003D7C10003F7C1000417C100000000000CF
:1020B000000000000000000000000000CD4D1000F6
:1020C000457C100000000000374E10006D4E1000DF
:1020D000CD691000396B10004B7C1000616410005A
:1020E0004B7C10004B7C1000755710004B7C10008F
:1020F0004B7C10004B7C10004B7C10004B7C100084
:102100004B7C10004B7C10004B7C10004B7C100073
:102110004B7C10004B7C10004B7C10004B7C100063
:10212000044B05481B1A062B02D9044B03B1184770
:10213000704700BF5F41FF3F5C41FF3F0000000070
:1021400005490648091A891001EBD171491002D0DE
:10215000034B03B1184770475C41FF3F5C41FF3FB1
:102160000000000010B5064C237843B9FFF7D8FFF4
:10217000044B13B10448AFF300800123237010BD5A
:102180005C41FF3F00000000DCEA100008B5084B8E
:102190001BB108490848AFF300800848036813B929
:1021A000BDE80840CCE7064B002BF9D09847F7E78D
:1021B000000000006041FF3FDCEA10005C41FF3F8F
:1021C0000000000000B583B001900091019B1A4609
:1021D0000023136053609360D36013615361019BCC
:1021E0000099184603F0AAF8019B184603B05DF861
:1021F00004FB00BF00B583B00190074A019B1A6041
:102200000023002B02D0019805F025FD019B184604
:1022100003B05DF804FB00BF4CDF100000B583B0D5
:1022200001900198FFF7E6FF019805F014FD019B6E
:10223000184603B05DF804FB00B583B00190074A6F
:10224000019B1A600023002B02D0019805F003FDCA
:10225000019B184603B05DF804FB00BF74E5100055
:1022600000B583B001900198FFF7E6FF019805F0F3
:10227000F2FC019B184603B05DF804FB00B585B085
:10228000039003984FF0FF33009310234022202146
:1022900005F02CFB039B14334FF0FF311846FFF77A
:1022A00091FF039B03F134004FF0FF330093202391
:1022B0000422082100F00AFD039B184605B05DF8D2
:1022C00004FB00BF08B5364800F08EFA35493448A3
:1022D00000F0C4FA01220221314800F015FB00226F
:1022E0002021314805F03AFB64212F4805F04EFBD0
:1022F0000123002208212D4805F09EFA0123002227
:1023000008212B4805F098FA0023002201212948D2
:1023100000F09AFD012300220121264800F02CFD47
:10232000012300220021234800F08EFD224A0121D2
:10233000204800F0FDFC4FF07C5003F065F81B488E
:1023400005F08EFA0346002BCCBF01230023DBB23D
:10235000002BF4D0194805F0C9FB0346DAB2184B3C
:102360001A70174B1B7819460D4800F0BBFA002372
:10237000002201210F4800F0FFFC114B1B78194689
:10238000094805F039FB02460E4B1A600D4B00223E
:102390001A60012300220121064800F0EDFCCEE77F
:1023A000D843FF3F30DF10002445FF3F7044FF3F1C
:1023B000C844FF3F3C45FF3FC9231000B044FF3FE6
:1023C0002045FF3F3845FF3F08B50023002201218B
:1023D0001A4800F0D1FC0521194805F00DFB024612
:1023E000184B1A60012300220121144800F0C4FC9C
:1023F000144B1B681946144805F064FB114B1B680D
:10240000DBB21946114800F06DFA0E4B1B68412BE8
:1024100012D1002300220121084800F0ADFC0C4934
:10242000074805F0E9FA0246064B1A60012300222C
:102430000121024800F0A0FC00BF08BD3C45FF3F61
:102440002445FF3F3845FF3FB044FF3FD843FF3F9F
:102450000100001010B582B00190054C054B9C4264
:1024600004D0183C204605F048FCF7E702B010BD48
:102470001043FF3F9041FF3F00B583B00190019BA7
:102480003433184600F094FD019B1846FFF7D4FE44
:10249000019B184603B05DF804FB00BFF0B589B09E
:1024A00003900291039B012B40F0C980029B4FF6E1
:1024B000FF72934240F0C38004AB184605F0DEFB88
:1024C00004AB1A465F49604805F042FC04AB18466D
:1024D00005F0D5FB5D4A5E495B4805F0B7FB5D4BF7
:1024E00007241E46B4F1FF3F0ED0334601251F4698
:1024F000B5F1FF3F05D0384605F0F8FB1837013D30
:10250000F6E73036013CEDE7504A5349002005F02C
:102510009DFB05AB184605F0B1FB05AB1A464949D2
:102520004E4805F015FC05AB184605F0A8FB474AD8
:1025300047494A4805F08AFB06AB184605F09EFB62
:1025400006AB1A463F49464805F002FC06AB184662
:1025500005F095FB3D4A3E49414805F077FB07AB46
:10256000184605F08BFB07AB1A4636493D4805F087
:10257000EFFB07AB184605F082FB344A3449394873
:1025800005F064FB4FF0FF3300931023402220211D
:10259000354805F0ABF92D4A3449334805F056FB70
:1025A000002302220121324805F0C8F8274A3149A8
:1025B0002F4805F04BFB304800F008FD234A2F4917
:1025C0002D4805F043FB2E48FFF758FE1F4A2D49C2
:1025D0002B4805F03BFB00234FF400724FF4807151
:1025E000294805F0ABF8194A2249274805F02EFB87
:1025F000002302220121254805F0A0F8134A1D49B5
:10260000224805F023FB4FF0FF33009310234022B4
:1026100020211F4805F06AF90C4A14491C4805F0AE
:1026200015FB4FF4003300934A2304220821194874
:1026300000F04CFB054A1849164805F007FB00BF9F
:1026400009B0F0BD40DF10007841FF3F0040FF3F80
:10265000FB7C10009041FF3F552410001043FF3FCA
:102660002843FF3F4043FF3F5843FF3F39221000BC
:102670006C43FF3F9D261000C443FF3F55301000C0
:10268000D843FF3F792410007044FF3FC844FF3F08
:102690002445FF3F3C45FF3FB12F100000B583B0FC
:1026A00001900E4A019B1A600D4A019B1A640D4A63
:1026B000019B5A64019B4033184605F0E1F9019BE8
:1026C0001846FFF797FD0023002B02D0019805F074
:1026D000C2FA019B184603B05DF804FB18E5100030
:1026E00030E5100064E51000A0F14000D6E700BF1F
:1026F000A0F14400D2E700BF00B583B0019001987B
:10270000FFF7CCFF019805F0A6FA019B184603B02D
:102710005DF804FBA0F14000EEE700BFA0F144002B
:10272000EAE700BF08B54FF6FF710120FFF7B6FEDC
:1027300008BD00BF00B583B00A4A0B4BD31A019302
:10274000019B1A460021084806F05AFC02F0F4FAF0
:1027500006F09CFB03F0D8FB04F09AFF0090009871
:1027600006F032F89C53FF3F5C41FF3F00B583B059
:102770000190019B022B01DC012303E0019804F08E
:102780001DFF0346184603B05DF804FB82B0EFF36B
:1027900005830193019B002B00D000BE00BF02B057
:1027A000704700BF00B583B00190FFF7EFFF0198BD
:1027B00006F0E2FB0346184603B05DF804FB00BFD9
:1027C00000B583B00190FFF7E1FF019806F0DCFB54
:1027D00000BF03B05DF804FB08B5012005F0F4FF6D
:1027E00008B5FFF7F9FF00BF00B583B00190019B6A
:1027F00034331349184600F08DFA019B03F134007D
:1028000000230222002100F01FFB019B03F1340092
:1028100000230322002100F017FB019800F0E4F9E7
:10282000019800F025FA019800F0A4F80122012196
:10283000019800F069F800BF03B05DF804FB00BF29
:1028400040420F0000B583B001900121019800F0D3
:10285000FBF800BF03B05DF804FB00BF00B583B018
:10286000019000910198FFF7EDFF012301220099EB
:10287000019800F005F800BF03B05DF804FB00BF4D
:1028800000B589B003900291019200930023069352
:10289000029B0793029B002B02D14FF0FF331CE0F9
:1028A000009A0199039800F02FF80590059B002BE2
:1028B00002D04FF0FF3310E0079B1B78002B06D0AF
:1028C000069B01330693079B01330793F4E7069AAF
:1028D0000299039800F0EEF80023184609B05DF85D
:1028E00004FB00BF00B583B001900B468DF80330A8
:1028F00001220DF103031946019800F0DBF800BF37
:1029000003B05DF804FB00BF00B587B003900291EF
:10291000019200238DF817300DF11603019A0299E8
:10292000039800F061F8034683F00103DBB2002B4B
:1029300002D04FF0FF3319E0039B029ADA62039B47
:10294000019A1A639DF816209DF8173013438DF8ED
:1029500017309DF8173063F07F038DF817309DF81E
:1029600017301946039800F06FF80023184607B097
:102970005DF804FB00B583B001903021019800F0B0
:1029800063F8022002F056FD3021019800F05CF857
:102990003021019800F058F83921019800F054F8DE
:1029A0001421019800F050F85621019800F04CF8DD
:1029B0006D21019800F048F87021019800F044F86A
:1029C0000C21019800F040F80621019800F03CF835
:1029D0000121019800F038F80A2002F02BFD00BF19
:1029E00003B05DF804FB00BF86B003900291019232
:1029F000009301238DF81730029B002B08DD029B0A
:102A0000022B05DC019B002B02DD019B102B01DD5D
:102A1000002315E0029B012B02D0022B07D00DE012
:102A2000019BDBB2013BDAB2009B1A7006E0019B0E
:102A3000DBB23F33DAB2009B1A7000BF9DF817304B
:102A4000184606B0704700BF00B583B001900B4632
:102A50008DF803304FF0FF31154800F0DDFA019892
:102A600000F006F9019800F09BF80021019800F0B1
:102A7000D1F8019B9DF803201146184604F0BCFFD5
:102A8000019800F0B1F89DF80330012B05D1019BAE
:102A90000122DA62019B01221A63019800F0FCF81E
:102AA000034800F0C9FA00BF03B05DF804FB00BFA3
:102AB000C443FF3F00B587B0039002910192019B90
:102AC000002B02DD029B002B02D14FF0FF3361E0AF
:102AD0004FF0FF31314800F09FFA039800F0C8F83A
:102AE000039800F05DF80121039800F093F80023AB
:102AF0000593059A019B9A4242DA059B029A134478
:102B00001B788DF81330039B1B6B102B03DC9DF897
:102B100013300A2B20D1039B01221A63039BDB6A2B
:102B20005A1C039BDA62039BDB6A022B02DD039BC8
:102B30000122DA62039BD96A039B1B6B1A46039836
:102B4000FFF7E2FE039800F093F80121039800F0EC
:102B500061F8039800F024F89DF813300A2B0BD08D
:102B6000039B9DF813201146184604F045FF039B74
:102B70001B6B5A1C039B1A63059B01330593B8E733
:102B8000039800F031F8039800F086F8034800F04D
:102B900053FA0023184607B05DF804FBC443FF3F17
:102BA00000B583B00190019B03F1340001230222A0
:102BB000002100F0E1F8142002F04CFC012002F0AA
:102BC00049FC019B03F1340000230222002100F0A4
:102BD000D3F8142002F03EFC012002F03BFC00BFC1
:102BE00003B05DF804FB00BF00B583B00190012085
:102BF00002F030FC019B03F134000123022200218A
:102C000000F0BAF8142002F025FC00BF03B05DF814
:102C100004FB00BF00B583B001900B468DF8033074
:102C20004FF4FA7002F016FC9DF80330002B0AD026
:102C3000012B11D1019B03F1340001230322002158
:102C400000F09AF808E0019B03F13400002303220E
:102C5000002100F091F800BF142002F0FBFB4FF4BC
:102C6000FA7002F0F7FB00BF03B05DF804FB00BF91
:102C700000B583B00190019B00220821184604F0A2
:102C80006DFE019B0349184604F080FE00BF03B0AF
:102C90005DF804FB20A1070000B587B00190082370
:102CA000059300230493084B0393019B049A059911
:102CB000184604F053FE019B0399184604F066FE83
:102CC00000BF07B05DF804FB40420F0000B585B0BF
:102CD0000390029101928DF80330039B019A0299AF
:102CE000184604F071F9039B0C330699184604F05A
:102CF00005FA039B9DF803201A72039B04491846AA
:102D000004F080F9039B184605B05DF804FB00BF92
:102D100040420F0000B583B001900091019B0099E3
:102D2000184604F06FF900BF03B05DF804FB00BF64
:102D300000B585B003900B4601928DF80B30019BD6
:102D4000002B14D09DF80B30002B02D0012B07D0A4
:102D50000DE0039B0C330199184604F031FA06E0AC
:102D6000039B0C330199184604F050FA00BF00BFD2
:102D700005B05DF804FB00BF00B585B001900846C2
:102D800011461A4603468DF803300B468DF8023083
:102D900013468DF801309DF90230002B03DB9DF9BD
:102DA0000230072B04DD57222549264802F034F96A
:102DB00072B69DF80330002B02D0012B04D007E03F
:102DC00002238DF80E3003E003238DF80E3000BF90
:102DD0009DF80E301946019800F0C2F803468DF8B0
:102DE0000F309DF80130002B0ED0012B1BD19DF927
:102DF0000230012202FA03F3DAB29DF80F301343D6
:102E0000DBB28DF80F300EE09DF90230012202FA9C
:102E100003F3DBB2DB43DAB29DF80F301340DBB2D1
:102E20008DF80F3000BF9DF80F209DF80E30194629
:102E3000019800F073F862B600BF05B05DF804FBBE
:102E400054DF100068DF100000B585B0019008461F
:102E500011461A4603468DF803300B468DF80230B2
:102E600013468DF801309DF90230002B03DB9DF9EC
:102E70000230072B04DD73222649274802F0CCF8E4
:102E800072B69DF80330002B02D0012B04D007E06E
:102E900006238DF80E3003E007238DF80E3000BFB7
:102EA0009DF80E301946019800F05AF803468DF847
:102EB0000F309DF80130002B02D0012B0FD01BE00A
:102EC0009DF90230012202FA03F3DBB2DB43DAB2EE
:102ED0009DF80F301340DBB28DF80F300CE09DF9F8
:102EE0000230012202FA03F3DAB29DF80F301343E5
:102EF000DBB28DF80F3000BF9DF80F209DF80E302B
:102F00001946019800F00AF862B600BF05B05DF8F6
:102F100004FB00BF54DF100068DF100000B587B06D
:102F200003900B468DF80B3013468DF80A3072B6BD
:102F30009DF80B308DF814309DF80A308DF815305F
:102F40000398039B1B7A194605AA002300930223CA
:102F500004F088F862B600BF07B05DF804FB00BF5C
:102F600000B587B003900B468DF80B309DF80B3001
:102F70008DF8163072B60398039B1B7A19460DF133
:102F8000160201230093012304F06CF80398039BBD
:102F90001B7A19460DF1170200230093012304F058
:102FA00087F862B69DF81730184607B05DF804FB45
:102FB00000B583B00190019B0C33184604F0DAF899
:102FC000019B184603B05DF804FB00BF00B583B059
:102FD0000190019B08330C220021184606F010F8DE
:102FE000019B03F10802019B5A60019B04331846C0
:102FF00000F0B4FB0246019B1A60019B1B68002B8A
:1030000002D1044802F024F8019B184603B05DF891
:1030100004FB00BF84DF100000B583B00190009175
:10302000019B1B680099184600F0C4FB0346184634
:1030300003B05DF804FB00BF00B583B00190019BB5
:103040001B68184600F0D4FB0346184603B05DF831
:1030500004FB00BF00B583B00190019B1B681846BC
:1030600000F0E0FB019B184603B05DF804FB00BFD5
:1030700084B00190019BB3F1FF3F02D14FF6FF7383
:103080001DE0019B0F4A934202D94FF6FE7316E0F2
:10309000019B4FF47A7202FB03F20B4B1B68134443
:1030A0005A1E094B1B68B2FBF3F30393039B4FF6C5
:1030B000FE72934202D94FF6FE7300E0039B18465E
:1030C00004B0704700093D00B8DF100084B00190E3
:1030D000019B002B01D100230FE0019B03F00303B0
:1030E000002B01D0002308E0019B0393039B1B7876
:1030F000002B01D0002300E0039B184604B070476A
:1031000082B00190019B03F00303002B01D0002348
:1031100000E0019B184602B0704700BF08B50A4B9B
:103120001B78002B01D000230CE001F051FD074B70
:103130001B68FF229A70002001F0E4FD024B01227F
:103140001A700023184608BD4448FF3F8048FF3FDF
:1031500000B583B0164B1B78002B01D0002322E072
:103160000021144800F078FB0246134B1A6000213E
:10317000124800F0ADF80246114B1A600021002001
:1031800001F06CFC0F4B1B689B6A20330193019B81
:1031900083F309880B4B00221A6001F07DFD044B7C
:1031A00001221A700023184603B05DF804FB00BF2B
:1031B0004548FF3F4840FF3F4849FF3F0440FF3F2D
:1031C0004449FF3F8048FF3F10B582B0EFF30584CC
:1031D0000094009C002C01D0822310E0EFF31484B3
:1031E0000194019C04F00104002C03D1FFF796FF29
:1031F000034604E0DFF80CC000DF034600BF1846BA
:1032000002B010BD1D31100010B58EB0EFF3058473
:103210000894089C002C01D0822351E0EFF3148421
:103220000D940D9C04F00304032C44D80FF2040EFB
:103230005EF824F0453210007D321000813210001B
:10324000A13210006C4620340C940C9C84F3098845
:103250001D4C247804F00104002C05D002240B94AA
:103260000B9C84F3148804E003240A940A9C84F3DE
:103270001488BFF34F8FBFF36F8F1CE0FF231FE055
:10328000114C247804F00104002C11D1032409947A
:10329000099C84F31488BFF34F8FBFF36F8F07E04F
:1032A000094C247804F00104002C03D0FF2307E02C
:1032B00000BF00E000BFDFF814C000DF034600BF1E
:1032C00018460EB010BD00BFB4DF10005131100021
:1032D00000B587B001900091019B002B16D0019B97
:1032E0001B68002B12D0019B9B881BB213F1030FAC
:1032F0000CDB019B9B881BB2032B07DC019B9B68AB
:10330000002B03D0019BDB68002B04D1802001F04F
:10331000F9FC002338E0019B9B88DBB204338DF875
:103320001730019B10330493019BDA68049BDA6227
:10333000019B9A68049B5A6201F0BEFA0390039BBA
:10334000013B1349049A41F82320039BDAB2049B02
:10335000DA70049B009ADA61019B1A689DF81730B5
:103360001946049801F0C6FA049801F007FB039B84
:10337000013B074A52F823300293029B9B6A343385
:103380001A46044B1360029B184607B05DF804FB15
:103390006C51FF3F6134100000B583B001F050FB69
:1033A0000190019B002B01D1002304E0019B013B14
:1033B000034A52F82330184603B05DF804FB00BFFF
:1033C0006C51FF3F00B585B001900198FFF77EFE7C
:1033D0000390039B002B01D180230BE0039BDB7840
:1033E000184601F09BFB0290029BFF2B01D1812329
:1033F00000E00023184605B05DF804FB00B587B077
:1034000001900091EFF3058103910399002901D008
:1034100000231CE0EFF314810591059901F00101EF
:10342000002909D10C490978002905D10099019892
:10343000FFF74EFF03460AE00199049100990291BB
:1034400004980299DFF814C000DF034600BF184655
:1034500007B05DF804FB00BF4548FF3FD1321000C4
:1034600000B583B0DFF810C000DF01900198DFF8ED
:103470000CC000DFFEE7000099331000C5331000D8
:1034800084B001900091002302931C4B1B680393AE
:1034900010E0039B1B891A46009B9A420ED8039B9F
:1034A0001B891A46009B9B1A0093039B0293039B64
:1034B0001B680393039B002BEBD100E000BF019B33
:1034C000039A1A60009B9AB2019B1A81039B002BFE
:1034D00007D0039B1A89019B1B89D31A9AB2039BBD
:1034E0001A81029B002B03D0029B019A1A6002E012
:1034F000024A019B136000BF04B070474848FF3F79
:1035000010B586B001900198FFF7FAFD0590059B74
:10351000002B0ED10023039300230493039B194631
:10352000049B1A464FF000034FF000040B4614466C
:1035300010E0059B1B691B680393059BDB680493E4
:10354000039B1946049B1A464FF000034FF00004FA
:103550000B4614461846214606B010BD00B583B090
:103560001A4B1B680193019B002B2BD0019B1B89DD
:10357000013B9AB2019B1A811CE0019B0093019BC5
:103580001B680193114A019B1360114B1B68009942
:103590000022184600F0F2F9009B5B79012B06D15E
:1035A000009B5B8919460098FFF76AFF02E0009BC9
:1035B00001221A71019B002B05D0019B1B89002B56
:1035C000DBD000E000BF03B05DF804FB4848FF3FDC
:1035D0004849FF3F00B585B00190009100980390E5
:1035E0000398DFF81CC000DF0B461A46019B1860E9
:1035F000019B5A6000BF019805B05DF804FB000014
:103600000135100000B589B001900C4B196803AB6F
:103610004FF0FF32184600F01BFA039B102BF4D139
:10362000049A06AB11461846FFF7D4FF069B002B01
:10363000EBD0069B079A10469847E6E74849FF3FBC
:1036400000B585B00190019B002B04D1802001F0D2
:1036500059FB002317E0019B1B680393039B002B7E
:1036600004D1802001F04EFB00230CE0039B1B786B
:10367000002B04D0802001F045FB002303E00398D9
:1036800000F08AFE039B184605B05DF804FB00BFFE
:1036900000B585B0019000910198FFF731FD0390CE
:1036A000039B002B01D180231AE0039B1B78032B83
:1036B00001D0802314E00098FFF7DAFC03469BB2A8
:1036C0001946039800F04EFF0290029B012B06D191
:1036D000009B002B01D0C12302E0812300E00023E6
:1036E000184605B05DF804FB00B585B0019001985F
:1036F000FFF706FD0390039B002B01D180230FE011
:10370000039B1B78032B01D0802309E0039800F072
:10371000AFFE0290029BFF2B01D1812300E000232A
:10372000184605B05DF804FB00B585B0019001981E
:10373000FFF7E6FC0390039B002B01D1802309E0F7
:10374000039B1B78032B01D0802303E0039800F038
:1037500039FE0023184605B05DF804FB00B587B0BC
:103760000190EFF3058003900398002801D0002317
:1037700018E0EFF314800590059800F00100002890
:1037800008D10A480078002804D10198FFF758FFB3
:10379000034607E0019804900498DFF814C000DFA6
:1037A000034600BF184607B05DF804FB4548FF3FDD
:1037B0004136100000B587B001900091EFF305810C
:1037C00004910499002901D082230AE0019905910E
:1037D0000099039105980399DFF810C000DF0346B4
:1037E00000BF184607B05DF804FB000091361000DA
:1037F00000B585B00190EFF3058002900298002893
:1038000001D0822307E0019803900398DFF810C0ED
:1038100000DF034600BF184605B05DF804FB00005A
:10382000E936100000B585B00190EFF305800290F5
:103830000298002801D0822307E0019803900398A2
:10384000DFF810C000DF034600BF184605B05DF882
:1038500004FB00002937100000B583B001900091EF
:10386000019B002B07D0019B1B68002B03D0019B01
:103870005B68002B04D1802001F044FA002317E09C
:10388000019B5B681B78002B04D0802001F03AFA82
:1038900000230DE0019B5A68019B1B6804339BB217
:1038A0009B009BB21946104600F074FB019B5B68BD
:1038B000184603B05DF804FB2DE9F04786B001908F
:1038C0000091019B002B0CD180230293029A0023CC
:1038D00000240025002613461F46A046A946B246EE
:1038E00041E0019B1B78012B0CD080230293029AAC
:1038F000002300240025002613461F46A046A946A3
:10390000B24630E00098FFF7B3FB03469AB202AB31
:1039100004331946019800F063FB0590059B012BC9
:1039200013D1009B002B01D0402300E00023029321
:103930000299039A00230024002500260B46144612
:103940001F46A046A946B2460DE0102302930299F5
:10395000039A00230024002500260B4614461F4628
:10396000A046A946B2463B4644464D4656461846F2
:1039700021462A46334606B0BDE8F08700B585B03B
:10398000039002910192039B002B02D0019B002B1C
:1039900001D0802313E0039B1B78012B01D08023EF
:1039A0000DE0039800F0AAFB0346002B01D1812310
:1039B00005E0029B1946039800F0AEFB0023184671
:1039C00005B05DF804FB00BF10B588B0039002910C
:1039D0000192029B002B02D0019B002B09D0802377
:1039E0000493039B1C4604AB93E8070084E807009C
:1039F0002AE0029B1B78012B09D080230493039BB0
:103A00001C4604AB93E8070084E807001CE004AB05
:103A100004331946029800F091FB0790079B042B92
:103A200009D000230493039B1C4604AB93E80700D2
:103A300084E8070008E010230493039B1C4604ABB2
:103A400093E8070084E80700039808B010BD00BFA2
:103A500000B589B0039002910192EFF305810691C0
:103A60000699002906D0039B019A02991846FFF790
:103A7000ABFF13E002990791019905910798059909
:103A8000DFF820C000DF0346184613461A46039BA2
:103A90001860039B5960039B9A6000BF039809B0AC
:103AA0005DF804FBB938100000B585B001900B46F5
:103AB000ADF80230019B1A8BBDF8023013439AB265
:103AC000019B1A83019B5B8BADF80E30019B5B78E9
:103AD000062B09D1019B1A8BBDF80E3013409BB207
:103AE000BDF80E209A4214D0019B5B78052B2ED195
:103AF000019B1A8BBDF80E3013409BB2002B26D0D1
:103B0000019B5A8B019B1B8B13409AB2019B5A83DA
:103B100000E000BF019B1B8B9AB2BDF80E30DB4367
:103B20009BB213409BB29AB2019B1A83019800F09A
:103B3000DBF9019B01225A70019B5B8B1A4608211D
:103B4000019801F013FA0199034800F031F800BF21
:103B500005B05DF804FB00BF4C48FF3F88B0039000
:103B600002910192EFF31083059372B6029B1B78CA
:103B70000793079A039B9A4215D2079BDBB2013346
:103B8000DAB2029B1A70019B1B780793079B0133E3
:103B90000693069A039B9A4201D100230693069B43
:103BA000DAB2019B1A7062B6079B184608B07047DC
:103BB00086B00190009100230493019B1B78022B97
:103BC00007D0019B1B78012B03D0019B1B78032B93
:103BD00001D101230493009B9B780393019B5B68B5
:103BE000059304E0059B0193059B5B680593059B8A
:103BF000002B05D0059B9B781A46039B9A42F1D275
:103C0000009B059A5A60019B009A5A60049B002B06
:103C100009D0059B002B02D0059B009A9A60009B5F
:103C2000019A9A6002E0009B00229A6000BF06B0F1
:103C3000704700BF84B00190019B5B680393039BB6
:103C40005A68019B5A60019B1B78022B07D0019B8D
:103C50001B78012B03D0019B1B78032B0ED1039BF8
:103C60005B68002B06D0039B5B68019A9A60039BFC
:103C700000225A60039B00229A6002E0039B00220C
:103C80005A60039B184604B0704700BF82B0019091
:103C9000064B5A68019B5A60019B00229A60034AB6
:103CA000019B536000BF02B0704700BF4C48FF3F0C
:103CB00000B585B00190019B9B68002B06D1019B4C
:103CC0005B78012B14D10C4B03930AE0019B9B689A
:103CD000039302E0039B9B680393039B1B78002BD9
:103CE000F8D0019800F0D2F801990398FFF760FF2F
:103CF00000BF05B05DF804FB4C48FF3F86B0019063
:103D00000B46ADF80230BDF8023003932B4B059300
:103D1000059BDB68002B02D10023049307E0274BAF
:103D20009B8A049321E0059BDB68002B14D1019B47
:103D30000022DA60059B019ADA60019B059A1A61FC
:103D4000039B9AB2049B9BB2D31A9AB2059B9A82A8
:103D5000019B00229A822EE0059BDB680593059B60
:103D60009B8A1A46049B13440493049A039B9A4229
:103D7000D9D3059BDA68019BDA60059B019ADA606A
:103D8000019B059A1A61019BDB68002B03D0019B04
:103D9000DB68019A1A61049B9AB2039B9BB2D31A07
:103DA0009AB2019B9A82059B9A8A019B9B8AD31A9D
:103DB0009AB2059B9A8206B0704700BF6448FF3FE5
:103DC00000B583B02E4BDB68002B54D02C4B9B8A64
:103DD000013B9AB22A4B9A8244E0294BDB6801935B
:103DE000019B9B68002B13D0019B9B68019A526832
:103DF0005A60019B5B68002B07D0019B5B68019AAE
:103E000092689A60019B00225A60019B00229A608E
:103E100001991C48FFF7CCFE019B9A8A184B9A82A5
:103E2000019B5B78042B08D1019BDA8A164B1B6837
:103E30009BB213449AB2019B9A82019B01225A7051
:103E4000019BDB680E4AD360019BDB68002B06D028
:103E5000019BDB680A4A1A61019B0022DA60019B20
:103E600000221A61064B9B8A002B05D1044BDB68AC
:103E7000002BB2D100E000BF03B05DF804FB00BF2F
:103E80006448FF3F4C48FF3FBC48FF3F84B001906F
:103E9000019B9B68002B0ED0019B9B68019A526886
:103EA0005A60019B5B68002B19D0019B5B68019AEB
:103EB00092689A6013E00B4B03930CE0039B5A68E3
:103EC000019B9A4204D1019B5A68039B5A6007E008
:103ED000039B5B680393039B002BEFD100E000BFC3
:103EE00004B070474C48FF3F84B00190019B1B69B0
:103EF0000393039B002B1DD0019BDA68039BDA60C0
:103F0000019BDB68002B0FD0039B9A8A019B9B8A45
:103F100013449AB2039B9A82019BDB68039A1A614D
:103F2000019B0022DA6002E0039B00229A82019B3F
:103F300000221A6100BF04B0704700BF00B585B011
:103F400001900091114BDB781846114B0F4A19462E
:103F5000FFF704FE03900D4BDB781A46039B9A4251
:103F60000CD90A4A039BDB001344019A5A60074AA2
:103F7000039BDB001344009A9A6002E0022000F0E9
:103F8000B7FE00BF05B05DF804FB00BFC048FF3FAF
:103F9000C248FF3F84B001900B46ADF80230019B50
:103FA0000393039B01221A70039B00225A70039B08
:103FB00000229A70039B00225A60039B00221A8100
:103FC000039B00225A81039B00229A81BDF8023094
:103FD000103B9B089AB2039BDA8100BF04B0704784
:103FE00000B589B0039002911346ADF80630039BEB
:103FF0000793079B9B89002B53D0079B5B891A462D
:10400000079B043253F82220029B1A60079B5B89AE
:1040100001339AB2079B5A81079B5A89079BDB8918
:104020009A4202D1079B00225A81079B5B68002BB2
:104030002AD0079B5B78022B26D10798FFF7FAFD61
:1040400006900021069800F081FF079B1B891A4605
:10405000069BD969079B043243F82210079B1B89F2
:1040600001339AB2079B1A81079B1A89079BDB8948
:104070009A4202D1079B00221A810698FFF734FF6B
:10408000069800F07BFC0AE0EFF31083059372B60C
:10409000079B9B89013B9AB2079B9A8162B60023DA
:1040A00026E0BDF80630002B01D1012320E0079B5C
:1040B0005B68002B06D0104B1B6819460798FFF76A
:1040C00077FD0EE00C4B1A68079B5A600A4B1B6881
:1040D00000225A60084B1B68079A9A60079B0122CE
:1040E0005A70BDF806300821184600F079FC01230B
:1040F000184609B05DF804FB8048FF3F84B001908A
:10410000019B0393039BDB891A46039B9B89D31A6C
:10411000184604B0704700BF00B585B0019000910B
:10412000019B0393009B19460398FFF707FF00F0DC
:10413000BBFA00BF05B05DF804FB00BF00B585B059
:1041400001900091019B0393039B9B89002B2ED030
:10415000039B5B891A46039B043253F82220009B81
:104160001A60039B5B78022B05D100210398FFF7AF
:10417000E5FE00F099FAEFF31083029372B6039B09
:104180009B89013B9AB2039B9A8162B6039B5B8930
:1041900001339AB2039B5A81039B5A89039BDB89A3
:1041A0009A4202D1039B00225A81042300E000239B
:1041B000184605B05DF804FB00B587B0019000918A
:1041C000019B5B68002B70D0019B5B78022B20D099
:1041D000032B02D0012B52D095E0009800F09AF802
:1041E0000590059B002B00F08D800198FFF722FDC4
:1041F0000490059B1946049800F0A8FE049B012238
:104200005A700498FFF770FE04994148FFF7D0FCFC
:1042100079E00198FFF70EFD04900021049800F06A
:1042200095FE019B1B891A46049BD969019B0432A8
:1042300043F82210EFF31083039372B6019B9B891E
:1042400001339AB2019B9A8162B6019B1B890133AB
:104250009AB2019B1A81019B1A89019BDB899A42C0
:1042600002D1019B00221A81049B01225A700498FA
:10427000FFF73AFE04992648FFF79AFC43E00198BD
:10428000FFF7D8FC0490009B1A461021049800F018
:104290006DFE049B01225A700498FFF725FE0499D5
:1042A0001B48FFF785FC00BF2DE0019B9A89019B0D
:1042B000DB899A4222D2019B1B891A46019B043258
:1042C000009943F82210EFF31083029372B6019B1A
:1042D0009B8901339AB2019B9A8162B6019B1B892B
:1042E00001339AB2019B1A81019B1A89019BDB89D8
:1042F0009A4208D1019B00221A8104E0032000F0B9
:10430000F7FC00E000BF00BF07B05DF804FB00BF92
:104310004C48FF3F86B00190EFF31083039372B6D1
:10432000039B03F001030593019B1B680493049B0B
:10433000002B03D0049B1A68019B1A60059B002B7D
:1043400000D162B6049B184606B0704784B0019055
:104350000091009A019B9A4204D3019B5A68009BEA
:104360009A4201D8012313E0EFF31083029372B64F
:10437000029B03F001030393019B1A68009B1A60E0
:10438000019B009A1A60039B002B00D162B60023A8
:10439000184604B0704700BF84B00190019B03939E
:1043A000039B03221A70039B00225A70039B002276
:1043B0005A80039B00225A60039B00229A6000BF30
:1043C00004B0704700B585B00190019B0393039B37
:1043D0005B88002B22D0039B9B68039A52789A70CB
:1043E000039B9A68204B1B689A4217D0039B9B68DB
:1043F0001846FFF75DFC11E00398FFF71BFC0290E5
:104400000021029800F0A2FD0298FFF76DFD029BCB
:1044100001225A7002991548FFF7CAFB039B5B689B
:10442000002BE9D1114B5B68002B14D00F4B5B685C
:104430009A780D4B1B689B789A420CD90A4B1B68E3
:1044400019460A48FFF7B4FB074B1B6801225A7054
:10445000002000F093FA039B00221A7000231846F4
:1044600005B05DF804FB00BF8048FF3F4C48FF3FAC
:1044700000B585B00190019B0393039B5B88002BE3
:1044800005D0039B9A68354B1B689A4201D0FF23E5
:1044900060E0039B5B88013B9AB2039B5A80039BBD
:1044A0005B88002B01D0002354E02C4B1B68039A3F
:1044B00052789A70039B5B68002B35D00398FFF706
:1044C000B9FB02900021029800F040FD0298FFF72E
:1044D0000BFD039B01225A80039B029A9A60029B68
:1044E0009A78039B5A701D4B1B689A781C4B5B682B
:1044F0009B789A4203D3029800F040FA29E0174BC8
:104500001B6819461648FFF753FB02991448FFF73A
:104510004FFB124B1B6801225A70029B01225A70FA
:10452000002000F02BFA14E00D4B5B689A780B4BDF
:104530001B689B789A420CD9084B1B68194608489F
:10454000FFF736FB054B1B6801225A70002000F074
:1045500015FA0023184605B05DF804FB8048FF3FBC
:104560004C48FF3F00B585B001900B46ADF80230D6
:10457000019B0393039B5B88002B09D1284B1A688E
:10458000039B9A60264B1B689A78039B5A7005E040
:10459000039B9A68224B1B689A4207D1039B5B8856
:1045A00001339AB2039B5A80002335E0BDF80230F4
:1045B000002B01D101232FE0039B5A78184B1B6875
:1045C0009B789A420AD2039B9B68154A126892789C
:1045D0009A70039B9B681846FFF76AFB039B5B6816
:1045E000002B06D00E4B1B6819460398FFF7E0FA24
:1045F0000BE00B4B1A68039B5A60094B1B680022A7
:104600005A60074B1B68039A9A60BDF80230092173
:10461000184600F0E5F90123184605B05DF804FBE3
:104620008048FF3F00B585B00190019B5B68002B7F
:1046300012D00198FFF7FEFA03900398FFF754FC9D
:10464000039B01225A700121039800F07FFC03991B
:104650000648FFF7ADFA05E0019B5B8801339AB28B
:10466000019B5A8000BF05B05DF804FB4C48FF3F3A
:10467000084A094B1B681360084B00221A60084B5C
:1046800007221A60074A074B1B6843F07F431360F9
:1046900000BF704714E000E0B0DF100018E000E059
:1046A00010E000E020ED00E0074B1B78DBB2002BB0
:1046B00004D1064B4FF080521A6002E0044B0122F5
:1046C0001A7000BF704700BFA045FF3F04ED00E037
:1046D000A145FF3F00B585B02D4B1B6801225A70E4
:1046E0002B4B1B681846FFF7D1FA2A4B5B780393D4
:1046F0003AE0284A039BDB0013445B680293029B69
:104700001B78002B0AD1234A039BDB0013449B68D0
:104710009BB219460298FFF7C7F910E0029B1B787D
:10472000012B09D11B4A039BDB0013449B681946EC
:104730000298FFF741FD02E00298FFF773FF039B29
:1047400001330393134BDB781A46039B934201D149
:1047500000230393EFF31083019372B60E4B1A7884
:10476000013AD2B21A7062B60A4B9B78002BC0D1C4
:10477000084B039AD2B25A700848FFF75BFA0090D0
:10478000009800F0EDF800BF05B05DF804FB00BF35
:104790008048FF3FC048FF3FC248FF3F4C48FF3FB3
:1047A00008B5FFF765FF4FF0FF33184608BD00BF9F
:1047B00000BF704700B583B00F4B1B6801225A70D1
:1047C0000D4B1B681846FFF761FA00F0F1FB0B4B2D
:1047D0001B680133094A1360FFF7F2FAFEF7BEFEC9
:1047E0000748FFF727FA0190019800F0B9F800BFD9
:1047F00003B05DF804FB00BF8048FF3FBC48FF3FAB
:104800004C48FF3F08B50C4B1B68DB78012B11D0DF
:10481000094B1B689B6A084A1268D26A934206D306
:10482000054B1B68DB6A1B68044A934202D00120D7
:1048300000F05EFA00BF08BD8048FF3FA52E5AE297
:1048400084B01A4A194B1B6843F47F031360174B5B
:104850001B681B0203F07F43DB430193019BB3FA08
:1048600083F38DF803309DF80330C3F108030393FD
:104870000F4B1B681B0A03F007030293029A039B6A
:104880009A4202DB029B013303930A496FF0807264
:10489000039B02FA03F303F07F42064B1B6823F0ED
:1048A0007F4313430B6000BF04B0704720ED00E06E
:1048B0000CED00E01CED00E082B0012301930BE061
:1048C000019B013B094A52F82330002B01D1019B87
:1048D00009E0019B01330193054B1B881A46019B9C
:1048E0009A42EDD20023184602B070476C51FF3F48
:1048F000AADF100000B585B003900B4601928DF839
:104900000B30039B00221A70039B01225A70039BF9
:104910009DF80B209A70039B00225A60039B002293
:104920009A60039B0022DA60039B00221A61039BBA
:1049300000229A82039B0022DA82039B00221A83C0
:10494000039B00225A83039B002283F820200199B5
:10495000039800F0ABFA00BF05B05DF804FB00BFA0
:1049600082B00190044A019B5360019B02225A705D
:1049700000BF02B0704700BF8048FF3F00B583B062
:104980000190019B002B07D11348FFF753F90190C9
:104990000198FFF7E5FF1AE0019B9A780F4B1B681F
:1049A0009B789A420CD90D4B1B681846FFF76EF99D
:1049B0000A4B1B6801225A700198FFF7D1FF06E0ED
:1049C000019B01225A7001990348FFF7F1F800BFDB
:1049D00003B05DF804FB00BF4C48FF3F8048FF3F39
:1049E00000B585B003460A46ADF8063013468DF88B
:1049F0000530BDF80630002B19D0BDF806304FF653
:104A0000FF72934207D00C4B1B68BDF8062011467D
:104A10001846FFF773F9084B1B689DF805205A707C
:104A20000648FFF707F903900398FFF799FF00BFC7
:104A300005B05DF804FB00BF8048FF3F4C48FF3FD6
:104A4000054B1B68002B01D1002302E0024B1B68C1
:104A5000DB781846704700BF8048FF3F00B585B03F
:104A600001900B468DF80330019B002B1CD1274B86
:104A70001B689DF803209A7000E000BF244B5B6820
:104A80009B789DF803209A420CD2204B1B68194654
:104A90001F48FFF78DF81D4B1B6801225A7000203C
:104AA000FFF76CFF00232CE01A4B1B881A46019B72
:104AB0009A4206D3019B013B174A52F82330002B40
:104AC00001D1FF231DE0019B013B134A52F8233023
:104AD0000393039B9DF803209A700C4B1A68039B69
:104AE0009A42CAD00398FFF7E3F8039B5B78012B47
:104AF00006D10748FFF79EF803900398FFF73EFFA3
:104B00000023184605B05DF804FB00BF8048FF3F56
:104B10004C48FF3FAADF10006C51FF3F10B584B036
:104B20000190019B002B06D0264B1B68DB781A46B0
:104B3000019B9A421ED1234B1B6800225A70214BC5
:104B40001C6800F018F90346A362FFF75BFE1D4BDB
:104B50001B68DB78013B1C4A002142F82310194BEB
:104B60001B680022DA62174B00221A600020FFF750
:104B700005FF23E0154B1B881A46019B9A4206D37A
:104B8000019B013B104A52F82330002B01D1FF2337
:104B900015E0019B013B0C4A52F823300393039824
:104BA000FFF774F90398FFF79FF9019B013B064A51
:104BB000002142F82310039B0022DA6200231846EA
:104BC00004B010BD8048FF3F6C51FF3FAADF1000CA
:104BD00000B583B00023019307E0244A019B002124
:104BE00042F82310019B01330193214B1B881A4685
:104BF000019B9A42F1D81F4BFF22DA701E4B1B8893
:104C00001A461C4B5A621B4B1C4ADA621C4A002192
:104C10001848FFF76FFE1B4B04221A70194B002235
:104C20005A60194B04221A70174B0022DA60164B97
:104C300000221A61144B00229A82144B0D4A1A600A
:104C4000124B1B6802225A70114B00221A70104B33
:104C500000225A700E4B0F4A1278DA7000F09AF95F
:104C6000FFF7EEFD00BF03B05DF804FB6C51FF3FA2
:104C7000AADF10008848FF3FBCDF10008451FF3FCF
:104C8000E54C10004C48FF3F6448FF3F8048FF3F21
:104C9000C048FF3FBEDF100008B5FFF781FD0246A8
:104CA0000F4B1A600E4B1B68002B17DB0C4B1B685D
:104CB00003F1604303F56443FF221A70084B1B683D
:104CC0005B119B0003F1604303F56143044A1268E2
:104CD00002F01F02012101FA02F21A6000BF08BDB2
:104CE0007C48FF3F08B500F0D9F800BF08BD00BF01
:104CF00000B583B0019000F0A1F900BF03B05DF8EA
:104D000004FB00BF00B583B00190019B002B01D0D4
:104D100000F094F900BF03B05DF804FB0349044BB5
:104D2000044A5B1A9360D160704700BFA053FF3FF5
:104D300000D4FF3F5040FF3F0020002104460D46B5
:104D4000094803F027FD04F0A1F820462946FEF7A4
:104D50003BFAFFF7E3FF05480021FEF74FFBFEF7A4
:104D600053FA03F031FD0000ED8B10005040FF3F7F
:104D700080F309887047EFF309807047684680F335
:104D800009883F480078C00714BF0220032080F341
:104D900014887047DFF8ECC0EFF305831B0618BFDB
:104DA0006047EFF31483DB0708BF604700DF7047FD
:104DB000DFF8D4C0EFF305831B0618BF6047EFF39D
:104DC0001483DB0708BF604700DF7047EFF30980FB
:104DD000816911F8021CF1B990E80F10E047EFF378
:104DE000098C8CE80700294B93E8060091420FD00C
:104DF00039B12CE9F00FC1F828C00CB4FFF702FD5F
:104E00000CBC1A60D2F828C0BCE8F00F8CF30988FB
:104E10006FF0020E704710B51D4A1268914209D812
:104E20001C4C54F8214090E80F10A047EFF3098C78
:104E30008CE80F0010BDFFF74DFC144B93E8060003
:104E4000914210D0EFF3098C2CE9F00FC1F828C083
:104E50000CB4FFF7D7FC0CBC1A60D2F828C0BCE831
:104E6000F00F8CF309886FF0020E7047FFF7A2FC79
:104E7000FFF7E3BFFFF79CFCFFF79CFCFFF7DDBFEC
:104E8000B4DF1000154310004D4310008048FF3F71
:104E900000000000FCFFFFFF00BF704708B5024B99
:104EA0001B689847FBE700BF9440FF3F86B0019026
:104EB0000091019B5B6A9B080393019BDA6A039B49
:104EC0009B0013440593059B03F00403002B02D0C1
:104ED000059B043B0593059B403B0593059B3C3399
:104EE0004FF080721A60059B3833009A1A600023D5
:104EF000049308E0049B9B00059A134400221A6067
:104F0000049B01330493049B0D2BF3D9059B2033A1
:104F1000019AD2691A60059A019B9A62019B009AD4
:104F20001A63019BDB78012B03D0019BDB6A024AE9
:104F30001A6000BF06B07047A52E5AE282B00190F9
:104F4000019B9B6A2033184602B0704700B585B0BC
:104F5000019000910198FFF7F1FF0390039B009AE5
:104F60001A6000BF05B05DF804FB00BF00B587B054
:104F70000390029101920398FFF7E0FF0590059BD3
:104F8000029A1A60059B0433019A1A6000BF07B0A9
:104F90005DF804FB044B00221A60044B1B689AB2B4
:104FA000014BDA8000BF70478453FF3FACDF100035
:104FB00000B583B0154B1A68154B5B689A420ED04A
:104FC000134B5B68114A1360124B1B689AB20F4B6C
:104FD000DB8813449BB2013B9AB20C4B9A800B4B7B
:104FE0009B881A460B4B1B689BB29A420AD1074B0F
:104FF00000221A600648FEF71DFE01900199044840
:10500000FEF7D6FD00BF03B05DF804FB8453FF3FFD
:105010004C48FF3FBC48FF3F00B585B0039002916C
:105020000192019B029A0399034800F011F800BF16
:1050300005B05DF804FB00BFC0DF100008B572B614
:10504000962000F0F7F9962000F0F4F9F8E700BF99
:105050000FB408B5012003F0B7FB00BF00B583B063
:1050600001900091019B1B68B3F1FF3F04D1242202
:105070000E490F48FFF7D0FF009B002B09D0019B82
:10508000DB68019AD2681268019909680A431A60BC
:1050900008E0019B1B69019A12691268019909686D
:1050A0000A431A6000BF03B05DF804FBF4DF100090
:1050B00040E0100000B585B00390029113468DF8D2
:1050C00007300299039800F07DFA029BB3F1FF3F8D
:1050D00009D00021039800F0B1FA9DF80730194675
:1050E000039800F0A3FA00BF05B05DF804FB00BF11
:1050F00082B00190019B012B03D12D4B05221A6038
:1051000052E0019B022B03D1294B05221A604BE090
:10511000019B102B03D1264B05221A6144E0019B11
:10512000202B03D1224B05225A613DE0019B402BED
:1051300003D11F4B05229A6136E0019BB3F5006F46
:1051400003D11B4B0522DA622EE0019BB3F5805F91
:1051500003D1174B05221A6326E0019BB3F5005FCC
:1051600003D1134B05225A631EE0019BB3F5804F18
:1051700003D10F4B05229A6316E0019BB3F5004F54
:1051800003D10B4B0522DA630EE0019BB3F5803FA0
:1051900003D1074B05221A6406E0019BB3F5003FDB
:1051A00002D1034B05225A6400BF02B0704700BF12
:1051B00000C0014082B00190019B012B03D12D4B17
:1051C00000221A6052E0019B022B03D1294B0022DE
:1051D0005A604BE0019B102B03D1264B00221A6131
:1051E00044E0019B202B03D1224B00225A613DE079
:1051F000019B402B03D11F4B00229A6136E0019B9B
:10520000B3F5006F03D11B4B0022DA622EE0019B45
:10521000B3F5805F03D1174B00221A6326E0019B90
:10522000B3F5005F03D1134B00225A631EE0019BCC
:10523000B3F5804F03D10F4B00229A6316E0019B18
:10524000B3F5004F03D10B4B0022DA630EE0019B54
:10525000B3F5803F03D1074B00221A6406E0019B9F
:10526000B3F5003F02D1034B00225A6400BF02B0E5
:10527000704700BF0000014000B585B00390029167
:10528000009313468DF807300299039800F09AF9BD
:10529000029BB3F1FF3F2BD0174A174B1B6923F03A
:1052A000805313610298FFF723FF134A124B1B69C7
:1052B00043F080531361104A0F4B1B6923F4803372
:1052C00013610298FFF776FF0B4A0B4B1B6943F4FF
:1052D0008033136100990398FFF7C0FE0121039802
:1052E00000F0ACF99DF807301946039800F09EF9DC
:1052F00000BF05B05DF804FB00B0014000B583B00D
:105300000190009103220099019800F005F800BF78
:1053100003B05DF804FB00BF00B585B003900291B7
:1053200013468DF807309DF807301A460299039806
:10533000FFF7C0FE00BF05B05DF804FB00B583B009
:105340000190009100220099019800F005F800BF3B
:1053500003B05DF804FB00BF00B585B00390029177
:105360000192019B022202990398FFF785FF00BF7B
:1053700005B05DF804FB00BF10B584B00190019B3F
:105380001B68DB689847019B5B685B68002B04D156
:10539000019B1B689B6898472CE0019B5B685B68DE
:1053A0001C68019B1B685B6898470346E31A002B47
:1053B00017DC019B5B685B680393019B5B68019A48
:1053C0005268526892685A60019B5B681B68002BA8
:1053D000D9D0019B5B681B68039A526810469847B6
:1053E000D1E7019B1B681B69019A526852681268D9
:1053F0001046984704B010BD08B50248FFF7BCFF3F
:1054000000BF08BD6CE0100000B583B001900849F2
:10541000019803F049F80346184603F095F903464E
:10542000184600F017F800BF03B05DF804FB00BF9A
:105430000024744900B583B00190019B4FF47A7247
:1054400002FB03F3184600F005F800BF03B05DF857
:1054500004FB00BF00B585B0019001F007FB03908D
:1054600000BF01F003FB0246039BD21A019B9A4244
:10547000F7D300BF05B05DF804FB00BF82B03A4A25
:10548000137843F00103137000BF374B5B68C3F31D
:105490000003DBB2012BF8D1344A13886FF34513B4
:1054A000138000238DF8073006E09DF80730DBB24B
:1054B0000133DBB28DF807309DF80730DBB2092BE2
:1054C000F3D9294A137843F00803137000BF264B21
:1054D0005B68C3F34013DBB2002BF8D000BF224B54
:1054E0005B68C3F30013DBB2012BF8D01F4A1388AB
:1054F00043F0200313801D4A13886FF304131380B5
:1055000000238DF8073006E09DF80730DBB2013349
:10551000DBB28DF807309DF80730DBB2092BF3D9E9
:10552000114A137843F00403137000BF0E4B5B68FD
:10553000C3F3C003DBB2002BF8D000BF0A4B5B689B
:10554000C3F38003DBB2012BF8D0084A138843F081
:1055500008031380044B4FF0FF321A61024B002204
:105560005A6100BF02B0704700B0014000D0014056
:1055700008B50E4B4FF481129A60FFF77FFF0C4B7A
:1055800000221A600B4B1F22C3F88020094B1F22F8
:10559000C3F88021054B4FF020625A60064B012270
:1055A0001A60064B064A1A6000BF08BD00ED00E015
:1055B0008C53FF3F00E100E00C8001409840FF3F2A
:1055C0000048E80100B583B001900091019B009A6A
:1055D0001A60009BB3F1FF3F17D00E4B1A68009B77
:1055E0001340002B04D053220B490C48FFF714FD45
:1055F0000B4A0B4B1B6923F480531361019B094A2F
:10560000DA60019B084A1A6100E000BF03B05DF850
:1056100004FB00BF8C53FF3F74E01000D0E010008B
:1056200000B0014000C0004004C0004082B00190C2
:105630000B468DF8033000BF02B0704782B0019076
:105640000B468DF803309DF80330002B02D0012B60
:105650000DD019E0019B0E4A9A60019B9B68019A4C
:1056600092681268019909680A431A600CE0019B6C
:10567000084A9A60019B9B68019A92681268019996
:1056800009680A431A6000BF00BF02B0704700BF3C
:105690000CC0004008C0004082B003468DF80730BF
:1056A00007499DF907305B099DF8072002F01F02AA
:1056B000012000FA02F241F8232000BF02B0704737
:1056C00000E100E082B003468DF8073008499DF9FB
:1056D00007305B099DF8072002F01F02012000FA45
:1056E00002F2203341F8232000BF02B0704700BF10
:1056F00000E100E082B003468DF8073008499DF9CB
:1057000007305B099DF8072002F01F02012000FA14
:1057100002F2603341F8232000BF02B0704700BF9F
:1057200000E100E082B0034600918DF807309DF95A
:105730000730002B0CDA0D499DF8073003F00F03FA
:10574000043B009AD2B21201D2B20B441A7609E09D
:1057500007499DF90730009AD2B21201D2B20B4428
:1057600083F8002300BF02B0704700BF00ED00E0E7
:1057700000E100E000B587B000238DF8173000236A
:10578000049300230393002302930023019385E0F5
:10579000474B5B6801930A2304935CE0444B5B68CE
:1057A0000121049A01FA02F21340002B50D0002389
:1057B0000293049B0A3B072B51D801A252F823F015
:1057C000E15710005F5810005F5810005F5810003C
:1057D000E7571000ED571000F3571000F95710006D
:1057E0000023039333E00123039330E00223039368
:1057F0002DE0032303932AE004238DF8173021E0E2
:105800009DF817302B4A52F82330002B15D02A4B25
:105810001B689DF81720274951F8222001211046C6
:105820009847254B1B689DF81720224951F82220E4
:10583000022110469847012302939DF81730013347
:105840008DF817309DF817300B2BD9D900BF06E023
:10585000049B01330493049B112B9FD900E000BFEC
:10586000029B002B17D1134A039B52F82330002BC5
:1058700011D0114B1B680F49039A51F822200121C6
:10588000104698470C4B1B680A49039A51F822208E
:10589000022110469847064A019B1363044B5B683C
:1058A000002B7FF475AF00BF07B05DF804FB00BFAD
:1058B00000C00040AC45FF3FDC45FF3F00B585B070
:1058C0000390029101920093029BB3F1FF3F02D13A
:1058D0004FF0FF3376E03D4A019B1360029A039B31
:1058E0005A60039B5B68B3F5004F18D0B3F5004FC7
:1058F00006D8B3F5806F0AD0B3F5804F0BD059E0CE
:10590000B3F5803F0FD0B3F5003F10D052E0304ADE
:10591000009B13604EE02E4A009B53604AE02C4AE5
:10592000009B936046E02A4A009BD36042E0284BEC
:105930001B69002B03D1264A009B13613AE0244BDC
:105940005B69002B03D1224A009B536132E0204B5C
:105950009B69002B03D11E4A009B93612AE01C4BDC
:10596000DB69002B03D11A4A009BD36122E0184B5C
:105970001B6A002B03D1164A009B13621AE0144BDA
:105980005B6A002B03D1124A009B536212E0104B5A
:105990009B6A002B03D10E4A009B93620AE00C4BDA
:1059A000DB6A002B03D10A4A009BD36202E04FF06E
:1059B000FF3307E002210620FFF7B4FE0620FFF7C1
:1059C0006BFE0023184605B05DF804FBDC45FF3F85
:1059D000AC45FF3F82B00190019B9B68034A0021C8
:1059E00042F8231000BF02B0704700BFAC45FF3F34
:1059F00000B587B003900B4601928DF80B30039BE6
:105A00005B680593059BB3F5806F14D0059BB3F5D8
:105A1000804F10D0059BB3F5004F0CD0059BB3F51C
:105A2000803F08D0059BB3F5003F04D0B4222C4939
:105A30002C48FFF7F1FA0620FFF744FE0620FFF797
:105A400059FE2949284BDA68039B5B681343CB60F6
:105A5000254A039B5B6813639DF80B30012B1CD117
:105A6000019B002B12D020491F4B9A69059B1343C1
:105A70008B611D491C4B1A6A059B13430B621A4923
:105A8000194B1A69059B13430B6122E01649164B0B
:105A90005A69059B13434B611BE0019B002B12D0FD
:105AA0001149114B9A69059B13438B610E490E4BAB
:105AB0005A6A059B13434B620B490B4B1A69059BB2
:105AC00013430B6105E00849074B5A69059B1343D3
:105AD0004B610620FFF7E0FD00BF07B05DF804FB57
:105AE000E8E0100034E1100000C00040014B18460F
:105AF000704700BF0048E80184B001900023039381
:105B0000019B039303E000BF039B013B0393039BB3
:105B1000002BF8D100BF04B0704700BF154A154BE9
:105B20001B6923F480531361134A134B9B6843F0A2
:105B30000C0393600F4A0F4B1B6923F080531361D2
:105B40000E4B2F229A600D4B2F22DA60094A094B27
:105B50001B6923F480331361094B05229A60084BBB
:105B60000522DA60034A034B1B6943F48033136157
:105B700000BF704700B0014000C0004000C00140BD
:105B800000000140034A034B1B6923F080031361AB
:105B900000BF704700B00140034A137C43F080030C
:105BA000137400BF704700BF0070004000B585B09F
:105BB000039002910192029B082B02D1019B042BBE
:105BC00004D0612210491148FFF726FA104B1B68D8
:105BD00043F00C030E4A1360FFF7A0FFFFF7D2FF5C
:105BE000FFF7DAFF0B4A137C43F040031374094AB2
:105BF000137C43F0200313740749039800F00EF858
:105C000000BF05B05DF804FB80E11000C8E11000A2
:105C10008C53FF3F00700040A086010000B585B0A6
:105C200001900091FFF762FF0246009BB2FBF3F385
:105C30009B08023B0393094A039BDBB203F01F035B
:105C4000D9B2137C61F304031374044A039B5B0908
:105C5000DBB2536100BF05B05DF804FB007000408B
:105C600082B00190074B14229A60064B1B6803F028
:105C70003403002B02D04FF0FF3300E0002318461E
:105C800002B070470070004082B00190034B1522B3
:105C90009A600023184602B0704700BF00700040B1
:105CA00000B587B003900291019200238DF8173060
:105CB0000023049349E02A4B12229A60C820FFF780
:105CC0001BFF029A049B13441B78132B18D1244BFF
:105CD00010229A60224B10229A60214B10229A6067
:105CE0001F4B11229A601E4B10229A601C4B1022EF
:105CF0009A601B4B11229A60194B11229A6007E09F
:105D00001749049B5A1C0492029A13441B788B6017
:105D1000C820FFF7F1FE124B16229A60C820FFF749
:105D2000EBFE00BF0E4B1B6803F01003002BF9D1F4
:105D3000C820FFF7E1FE0A4B1B6803F00403002BA9
:105D400003D002238DF8173003E0049A019B9A4296
:105D5000B1D39DF81730184607B05DF804FB00BFBB
:105D60000070004000B587B00390029101920023BB
:105D7000059300238DF813303AE0224B13229A60EA
:105D8000C820FFF7B9FE09E01E4B1B6803F00403AF
:105D9000002B03D002238DF8133005E0194B1B684C
:105DA00003F00203002BEFD0059B5A1C0592029AC8
:105DB0001344144A5268D2B21A70059A019B9A424F
:105DC00002D2104B10229A600E4B1B6803F0800326
:105DD000002B03D003238DF813300DE0094B1B6813
:105DE00003F00403002B03D002238DF8133003E0EB
:105DF000059A019B9A42C0D39DF81330184607B00C
:105E00005DF804FB0070004000B587B0039002917C
:105E10000192009300238DF817300398FFF734FFA9
:105E200002AB012219460398FFF73AFF03468DF8AB
:105E300017309DF81730002B05D00398FFF710FF9F
:105E40009DF8173019E0009B1A4601990398FFF757
:105E500027FF03468DF817309DF81730002B05D02B
:105E60000398FFF7FDFE9DF8173006E0089B002B16
:105E700002D00398FFF7F4FE009B184607B05DF8C8
:105E800004FB00BF00B587B003900291019200931C
:105E900000238DF817300398FFF7F6FE029B43F0BE
:105EA0000103029302AB012219460398FFF7F8FEA3
:105EB00003468DF817309DF81730002B05D0039856
:105EC000FFF7CEFE9DF8173019E0009B1A460199A6
:105ED0000398FFF747FF03468DF817309DF81730FA
:105EE000002B05D00398FFF7BBFE9DF8173006E0A6
:105EF000089B002B02D00398FFF7B2FE009B1846C8
:105F000007B05DF804FB00BF00B587B003AB00210C
:105F10000A461A800A469A70FFF700FEFFF732FE23
:105F2000FFF73AFE454A137C43F040031374434A9B
:105F3000137C43F02003137441490020FFF76EFEE9
:105F400020238DF80C3007238DF80D3000238DF8B9
:105F50000E300020FFF798FE03AB03221946002005
:105F6000FFF79EFE0020FFF77BFE20238DF80C300C
:105F700003238DF80D3000238DF80E300020FFF73D
:105F800083FE03AB032219460020FFF789FE0020A1
:105F9000FFF766FE4FF6FF70FFF7AEFD20238DF88A
:105FA0000C3003238DF80D30FF238DF80E300020C8
:105FB000FFF76AFE03AB032219460020FFF770FECD
:105FC0000020FFF74DFE1F4A6B461068516803C35F
:105FD0001189927A19809A7006238DF80C30FF236C
:105FE0008DF80D30FF238DF80E300B230493002322
:105FF00005931AE00020FFF747FE6A46059B13440D
:10600000012219460020FFF74BFE03AB032219467D
:106010000020FFF745FE0020FFF722FE4FF6FF703D
:10602000FFF76AFD059B01330593059A049B9A428D
:10603000E0D900BF07B05DF804FB00BF007000406E
:1060400040420F00E4E11000014B1846704700BFCA
:106050000048E80100B585B0039002910192029BCF
:10606000012B03D0029BB3F5807F06D1019B022B4D
:1060700008D0019BB3F5007F04D03A22244925487B
:10608000FEF7CAFF029B012B13D1019B022B10D1FB
:10609000039B214A1A60039B00225A601F4B1B6816
:1060A00043F003031D4A136000F068F800F0CAF8DB
:1060B0001BE0029BB3F5807F17D1019BB3F5007FF6
:1060C00013D1039B164A1A60039B01225A60134B9B
:1060D0001B6843F44073114A136000F023F800F08A
:1060E000A7F8039B1B6800225A604FF4E131039824
:1060F00000F070F8022300220821039800F0ACF8A9
:10610000039B1B680F229A6000BF05B05DF804FB7B
:10611000F0E110003CE21000005000408C53FF3FC3
:1061200000800040124A124B1B6923F08053136118
:10613000104B25221A620F4B04225A620C4A0C4B58
:106140001B6943F080531361094A094B1B6923F40F
:1061500080331361084B07221A62074B07225A62E9
:10616000034A034B1B6943F48033136100BF70473C
:1061700000B0014000C0014000000140124A124B33
:106180001B6923F080531361104B07221A600F4BD9
:1061900004225A600C4A0C4B1B6943F08053136174
:1061A000094A094B1B6923F480331361084B07220A
:1061B0001A60074B07225A60034A034B1B6943F4DA
:1061C0008033136100BF704700B0014000C0014040
:1061D0000000014000B585B001900091FFF734FF49
:1061E0000246009BB2FBF3F31B09ADF80E30019B96
:1061F0001B68019A1268D26842F08002DA60019B43
:106200001B68BDF80E20D2B21A60019B1B68BDF856
:106210000E20120A92B25A60019B1B68019A126802
:10622000D26802F07F02DA6000BF05B05DF804FBBF
:10623000034A034B1B6923F48073136100BF70474B
:1062400000B00140034A034B1B6923F02003136194
:1062500000BF704700B0014000B585B003900291C7
:10626000009313468DF80730009B012B07D0009B4D
:10627000022B04D0BA2234493448FEF7CDFE022363
:106280000093029B042B02DD029B082B04DDC2223B
:106290002D492F48FEF7C0FE9DF80730002B14D083
:1062A0009DF80730012B10D09DF80730022B0CD041
:1062B0009DF80730032B08D09DF80730042B04D03D
:1062C000C62221492348FEF7A7FE029B053B029305
:1062D000009B013B00939DF80730042B20D801A2BE
:1062E00052F823F0F96210000163100009631000F6
:1062F000116310001963100000238DF8073013E0BC
:1063000001238DF807300FE002238DF807300BE0F2
:1063100005238DF8073007E007238DF8073003E0E9
:1063200000238DF8073000BF039B1B68009A910083
:10633000029A11439DF80720D2000A43DA6000BF99
:1063400005B05DF804FB00BFF0E1100074E210003E
:106350009CE21000C0E2100082B00190019B1B681B
:106360005B69C3F30003DBB2184602B0704700BF9D
:1063700082B00190019B1B685B69C3F34013DBB2E1
:10638000184602B0704700BF00B583B0019000917D
:1063900000BF0198FFF7ECFF0346002BF9D0019BEB
:1063A0001B68009A1A6000BF03B05DF804FB00BFD1
:1063B00000B583B0019000BF0198FFF7CDFF034601
:1063C000002BF9D0019B1B681B68184603B05DF8D1
:1063D00004FB00BF84B0039002910192054A029B26
:1063E0001360039B5B680449019A41F8232000BFB6
:1063F00004B07047E445FF3FE845FF3F00B583B078
:10640000034600918DF80730134A009B52F8233061
:10641000002B1DD09DF8073003F04003002B08D05F
:106420000E4B1B680C49009A51F82220012110469E
:1064300098479DF8073003F00103002B08D0074B65
:106440001B680549009A51F8222000211046984700
:1064500000BF03B05DF804FBE845FF3FE445FF3FA4
:1064600000B583B01B4B5B698DF8063000238DF8B7
:106470000730184B5B6803F00203002B0AD09DF82D
:10648000063003F04003DAB29DF807301343DBB265
:106490008DF807300F4B5B6803F00103002B0AD027
:1064A0009DF8063003F00103DAB29DF8073013437C
:1064B000DBB28DF807309DF806209DF807301340B9
:1064C000DBB200211846FFF799FF00BF03B05DF86B
:1064D00004FB00BF00500040014B1846704700BF4E
:1064E0000048E80182B00190019B1A68137B6FF3AA
:1064F0000003137300BF02B0704700BF82B0019069
:10650000019B1A68137B43F00103137300BF02B0B1
:10651000704700BF00B585B00390029101920093CF
:10652000029B202B03D0029BB3F5004F0DD1019BA2
:10653000402B03D0019BB3F5803F06D1009B102B6D
:1065400008D0009BB3F5804F04D036222649274857
:10655000FEF762FD029B202B17D1019B402B14D12B
:10656000009B102B11D1039B214A1A60214B1B6801
:1065700043F070031F4A136000F07CF81E4A1E4B64
:106580001B6923F0400313611CE0029BB3F5004F2D
:1065900018D1019BB3F5803F14D1009BB3F5804F18
:1065A00010D1039B154A1A60124B1B6843F4E03369
:1065B000104A136000F024F80F4A0F4B1B6923F4B4
:1065C000007313610398FFF78DFF039B1B68042280
:1065D0009A62039B1B680422DA620398FFF78EFF1E
:1065E00000BF05B05DF804FB48E3100090E3100025
:1065F000006000408C53FF3F00B00140009000401D
:10660000184A184B1B6923F480531361164A164B22
:106610009B6843F440439360134A134BDB6843F495
:106620008033D3600F4A0F4B1B6923F080531361F3
:106630000E4B07229A630D4B0722DA630B4B07229E
:106640001A64084A074B1B6923F480331361084B13
:1066500006229A63064B0622DA63054B06221A6469
:1066600000BF704700B0014000C0004000C00140C2
:1066700000000140184A184B1B6923F48053136132
:10668000164A164B9B6843F030039360134A134B32
:10669000DB6843F04003D3600F4A0F4B1B6923F0C4
:1066A000805313610E4B07221A610D4B07225A616A
:1066B0000B4B07229A61084A074B1B6923F480336E
:1066C0001361084B06221A61064B06225A61054BDC
:1066D00006229A6100BF704700B0014000C0004030
:1066E00000C001400000014000B587B00390029156
:1066F000019200930398FFF7F5FE029B082B05D04B
:10670000029B102B02D0029B202B05D1019B002B5A
:1067100002DB019B032B04DDA4223A493A48FEF731
:106720007BFC0023059300230493029B102B06D0CF
:10673000202B07D0082B08D10023029305E001236A
:10674000029302E00223029300BF039B1A68029B9C
:10675000DBB203F00303D9B2137B61F38713137326
:10676000039B1A68137B43F020031373019B032BD5
:106770001ED801A252F823F0896710009367100019
:106780009D671000A7671000002305930023049362
:106790000EE0002305930123049309E001230593F0
:1067A0000023049304E0012305930123049300BF15
:1067B000039B1A68059BDBB203F00103D9B2137B7C
:1067C00061F304131373039B1A68049BDBB203F099
:1067D0000103D9B2137B61F3C3031373039B1A68DC
:1067E000137B43F004031373039B1A68137B43F07A
:1067F000020313730398FFF781FE00BF07B05DF833
:1068000004FB00BF48E31000F4E3100000B585B0BE
:10681000019000910198FFF765FEFFF75DFE0246CB
:10682000009BB2FBF3F35B08013B0393019B1B68E6
:10683000039A9A600198FFF761FE00BF05B05DF80A
:1068400004FB00BF82B00190009100BF019B1B6858
:106850001B69C3F38003DBB2002BF7D0019B1B68DD
:10686000009A1A6000BF019B1B681B69C3F30003F9
:10687000DBB2012BF7D000BF02B0704782B00190AD
:1068800000BF019B1B681B69C3F34013DBB2012BE4
:10689000F7D0019B1B685B68184602B0704700BFC9
:1068A00000B583B00190009100990198FFF7CAFFED
:1068B0000198FFF7E3FF0346184603B05DF804FBB9
:1068C00082B003468DF8073007499DF907305B0910
:1068D0009DF8072002F01F02012000FA02F241F8A1
:1068E000232000BF02B0704700E100E082B0034601
:1068F0008DF8073008499DF907305B099DF807209E
:1069000002F01F02012000FA02F2203341F8232096
:1069100000BF02B0704700BF00E100E082B0034654
:106920008DF8073008499DF907305B099DF807206D
:1069300002F01F02012000FA02F2403341F8232046
:1069400000BF02B0704700BF00E100E082B0034624
:106950008DF8073008499DF907305B099DF807203D
:1069600002F01F02012000FA02F2603341F82320F6
:1069700000BF02B0704700BF00E100E082B00346F4
:1069800000918DF807309DF90730002B0CDA0D4986
:106990009DF8073003F00F03043B009AD2B21201B6
:1069A000D2B20B441A7609E007499DF90730009AE4
:1069B000D2B21201D2B20B4483F8002300BF02B05E
:1069C000704700BF00ED00E000E100E04FF08043C1
:1069D0000022DA60034B1B680133024A136000BFD8
:1069E000704700BFF845FF3F08B51D4B1B68002BE3
:1069F00033D11B4B01221A601A4A1A4B1B6923F030
:106A000001031361174A174B1B6923F0020313613B
:106A10004FF080434FF6FF721A604FF08043D4224C
:106A20009A60114B4FF6FF721A600F4B54229A6016
:106A30000020FFF78BFF0120FFF788FF01210020D6
:106A4000FFF79CFF01210120FFF798FF0020FFF7CF
:106A500037FF0120FFF734FF00E000BF08BD00BF93
:106A6000F045FF3F00B001400010004000B583B08A
:106A70001C4B1B68002B01D1FFF7B6FF4FF0804382
:106A80005B680093009BC3F57F43FF3301930020B5
:106A9000FFF72CFF4FF080439B68C3F30023DBB26A
:106AA000002B11D04FF080430022DA600E4B1B68A0
:106AB00001330D4A13604FF080435B680093009BE5
:106AC000C3F57F43FF330193074B1B681B04019AF7
:106AD000134301930020FFF7F3FE019B184603B018
:106AE0005DF804FBF045FF3FF845FF3F034A13897B
:106AF0006FF3C713138100BF704700BF0010004041
:106B0000024B0022DA6000BF704700BF0010004057
:106B100082B00190074A13896FF3C7131381054AA6
:106B2000019B1360034A138943F08003138100BF64
:106B300002B070470010004008B50D4B0022DA602B
:106B40000C4B1B68002B09DD4FF6FF70FFF7E0FFD1
:106B5000084B1B68013B074A136006E0044A13898F
:106B60006FF3C7131381FEF747FC00BF08BD00BFDA
:106B700000100040F445FF3F00B585B00190FFF7DD
:106B800075FF0246019B9B1A0393039B002B03DCBA
:106B90000120FFF7C3FE07E0039B1B14044A1360A8
:106BA000039B1846FFF7B4FF05B05DF804FB00BF78
:106BB000F445FF3F00B583B0019000910099019822
:106BC00000F02AF8019B184603B05DF804FB00BFF3
:106BD00000B583B00190019B5B69002B07D1019B3D
:106BE0001B68002B03D0019B1B68984711E0019B99
:106BF0005B69002B0CD0019B1B68002B08D0019B0C
:106C00005B69019A1068019A04321146984700E0C6
:106C100000BF03B05DF804FB82B001900091019BBE
:106C2000009A1A60019B00225A6100BF02B07047AF
:106C300084B00390029113468DF807300F4A039BEE
:106C40001A60039B00225A60039B029A9A60039B7E
:106C50009DF807201A73029B002B07D0084B1A6877
:106C6000039B5A60064A039B136002E0039B0022C9
:106C70005A60039B184604B0704700BF68E41000D8
:106C8000FC45FF3F00B585B00190164A019B1A6094
:106C9000019B9B68002B19D0134B1A68019B9A42E9
:106CA00004D1019B5B68104A13600FE00E4B1B6818
:106CB0000393039B5A68019B9A4203D0039B5B6832
:106CC0000393F6E7019B5A68039B5A600023002B4D
:106CD00002D0019800F0BFFF019B184605B05DF897
:106CE00004FB00BF68E41000FC45FF3F00B583B023
:106CF00001900198FFF7C6FF019800F0ACFF019BDF
:106D0000184603B05DF804FB00B585B00190009112
:106D1000134B1B680393039B002B1CD0039B9B68A6
:106D2000002B14D0039B9B68009A0199184603F02E
:106D30004AFC0346002B0AD1039B9B68184603F0CC
:106D40003AFC0246009B9A4201D1039B04E0039B5C
:106D50005B680393DFE70023184605B05DF804FB8A
:106D6000FC45FF3F82B00190019B1B7B184602B09F
:106D7000704700BF00B585B00190019B1B681033C0
:106D80001B6801220021019898470390039BB3F1EF
:106D9000FF3F02D14FF0FF3311E0019B1B6810331E
:106DA0001B6802220021019898470290019B1B68F2
:106DB00010331B680022039901989847029B1846DC
:106DC00005B05DF804FB00BF82B00190034A019B4F
:106DD0001A60019B184602B0704700BFECE4100037
:106DE00000B583B001900091019B1846FFF7ECFFBE
:106DF000019B0433002200991846FFF719FF054A4A
:106E0000019B1A60044A019B5A60019B184603B01B
:106E10005DF804FB78E41000A4E4100000B583B032
:106E200001900D4A019B1A600C4A019B5A60019B1C
:106E300004331846FFF726FF019B184600F02CFA92
:106E40000023002B02D0019800F005FF019B18469B
:106E500003B05DF804FB00BF78E41000A4E4100068
:106E600000B587B001900091019B00221A60019B40
:106E700000225A60009B1B782F2B31D1009B0133DD
:106E80001B78002B2CD0009B01330493019B049AA8
:106E90001A6000230593019B1B681B788DF80F3047
:106EA0009DF80F302F2B05D1019B1B685A1C019BAD
:106EB0001A600DE09DF80F30002B08D0059B0133C0
:106EC0000593019B1B685A1C019B1A60E3E700BFF6
:106ED000059B19460498FFF717FF0246019B5A606D
:106EE000019B184607B05DF804FB00BF82B001901B
:106EF000019B1B68184602B0704700BF00B583B005
:106F00000190019B5B68002B01D100230AE0019BEB
:106F10005B681846FFF726FF0346012B0CBF0123D1
:106F20000023DBB2184603B05DF804FB00B583B064
:106F300001900198FFF7E2FF0346002B02D0019B6E
:106F40005B6800E00023184603B05DF804FB00BF57
:106F500000B583B00190019B5B68002B01D1002339
:106F60000AE0019B5B681846FFF7FCFE0346002B16
:106F70000CBF01230023DBB2184603B05DF804FB0D
:106F800000B583B001900198FFF7E2FF0346002BA4
:106F900009D0019B5B68002B03D0019B5B68043B1D
:106FA00002E0002300E00023184603B05DF804FB74
:106FB00082B00190019B5B68002B14BF012300236A
:106FC000DBB2184602B0704700B585B0039002915D
:106FD0000192039B00221A60039B084A5A60039B9C
:106FE000019A02991846FEF7E1FD054A039B1360DA
:106FF000039B184605B05DF804FB00BFA0860100A6
:107000000046FF3F00B583B001900091019B009ABC
:107010005A60019A019B5B6819461046FEF7FEFD17
:10702000034A019B136000BF03B05DF804FB00BF7F
:107030000046FF3F00B583B00190094B1A68019BE1
:107040009A4209D0019A019B5B6819461046FEF7E7
:10705000E5FD034A019B136000BF03B05DF804FB2C
:107060000046FF3F00B589B005900491039202935A
:107070000598FFF7DFFF9DF82830002B01D0002393
:1070800000E0012307930598079B0093029B039A56
:107090000499FEF7B9FE0690029A069B9A4214BF25
:1070A00001230023DBB2184609B05DF804FB00BFE2
:1070B00000B589B005900491039202930598FFF7FB
:1070C000B9FF9DF82830002B01D0002300E00123F8
:1070D00007930598079B0093029B039A0499FEF778
:1070E000D1FE0690029A069B9A4214BF0123002308
:1070F000DBB2184609B05DF804FB00BF00B583B0F1
:1071000001900091194A019B1A60019B04330022EF
:107110001A605A609A60DA601A615A61019B002213
:10712000DA61019B00221A62019B00225A62019BD4
:10713000283300211846FFF73DFD019B4033002115
:107140001846FFF737FD019B03F11C00019B084A1D
:107150000099FEF7B3FB019B043300991846FEF734
:10716000CDF8019B184603B05DF804FBB4E41000B1
:107170005972100000B583B00190094A019B1A6052
:10718000019B1C331846FEF725FC0023002B02D080
:10719000019800F060FD019B184603B05DF804FB08
:1071A000B4E4100000B583B001900198FFF7E2FF4E
:1071B000019800F050FD019B184603B05DF804FBF8
:1071C00000B583B001900091009B002B0DD0019B76
:1071D000283300991846FFF71FFD019B1C3301223D
:1071E00001211846FEF704FC0CE0019B2833002126
:1071F0001846FFF711FD019B1C33002201211846A0
:10720000FEF7F6FB00BF03B05DF804FB00B583B0EA
:1072100001900091009B002B0DD0019B4033009901
:107220001846FFF7F9FC019B1C3301220221184686
:10723000FEF7DEFB0CE0019B403300211846FFF710
:10724000EBFC019B1C33002202211846FEF7D0FB09
:1072500000BF03B05DF804FB00B585B001900B469C
:107260008DF80330019B03939DF80330012B03D06D
:10727000022B07D0002B0BE0039B28331846FFF7A7
:10728000A7FC05E0039B40331846FFF7A1FC00BFB5
:1072900000BF05B05DF804FB00B585B00190124A4F
:1072A000019B1A60002303934022039B9A420FD94B
:1072B0000E4A039B52F82320019B9A4204D10B4AA9
:1072C000039B002142F82310039B01330393EBE758
:1072D0000023002B02D0019800F0BDFC019B184652
:1072E00005B05DF804FB00BFECE410000446FF3F6E
:1072F00008B5074B1B68002B07D14FF0FF324FF04A
:10730000FF310448FEF7A6FE00E000BF08BD00BF45
:10731000E045FF3F9053FF3F84B00190019B0393F2
:10732000039B23F480330393039B184604B07047F8
:1073300010B58AB0019000914849019803F031F9E5
:107340000346002B03D1FFF7D3FF002383E044491A
:10735000019803F026F90346002B03D1FFF7C8FF7D
:10736000012378E03F49019803F01BF90346002B05
:1073700003D1FFF7BDFF02236DE0002309934022F4
:10738000099B9A420AD9384A099B52F82330002BAC
:1073900003D0099B01330993F1E700BF4022099B09
:1073A0009A4202D84FF0FF3355E0019B1B783A2BED
:1073B00008D105AB1A462D49019803F083F8059BC7
:1073C00008933BE003AB01991846FFF749FD03AB77
:1073D0001846FFF7EDFD034683F00103DBB2002BF7
:1073E00002D04FF0FF3336E003AB1846FFF7B0FD95
:1073F0000346002B05D003AB1846FFF7C1FD0890EC
:107400001CE003AB1846FFF791FD0790079B002B8C
:1074100002D14FF0FF331EE00098FFF77DFF06908A
:10742000079B1B6808331C6803AB1846FFF75EFD1B
:107430000346069A19460798A0470890089B002B18
:1074400002D14FF0FF3306E00749099B089A41F843
:107450002320099B033318460AB010BDBCE410007A
:10746000C4E41000CCE410000446FF3FD4E4100054
:1074700000B585B00190019B022B01DC002318E0D0
:10748000019B033B0D4A52F823300393019B033BBE
:107490000A4A002142F82310039B002B02D14FF02F
:1074A000FF3306E0039B1B6804331B68039898476F
:1074B0000346184605B05DF804FB00BF0446FF3FD5
:1074C00000B589B00390029101920093039B022BB7
:1074D0001ADC1A4B1B68002B01D1FFF709FF0023B0
:1074E0000693069A019B9A420BD2029A069B13447A
:1074F0001B7819461248FEF747FF069B0133069397
:10750000EFE7019B079313E0039B033B0D4A52F8FF
:1075100023300593059B002B02D14FF0FF3308E089
:10752000059B1B681B68019A02990598984707906C
:10753000079B184609B05DF804FB00BFE045FF3F1C
:107540009053FF3F0446FF3F00B587B00390029180
:1075500001920093039B022B0FDC154B1B68002B41
:1075600001D1FFF7C5FE1348FEF722FF0346DAB24A
:10757000029B1A700123059314E0039B033B0E4A00
:1075800052F823300493049B002B02D14FF0FF33B9
:1075900009E0049B1B6808331B68019A0299049850
:1075A00098470590059B184607B05DF804FB00BF9F
:1075B000E045FF3F9053FF3F0446FF3F00B585B0D5
:1075C0000190019B022B01DC012312E0019B033B94
:1075D0000A4A52F823300393039B002B02D14FF049
:1075E000FF3306E0039B1B680C331B680398984726
:1075F0000346184605B05DF804FB00BF0446FF3F94
:1076000000B587B0039002910192039B022B01DC2D
:10761000002314E0039B033B0B4A52F823300593ED
:10762000059B002B02D14FF0FF3308E0059B1B6840
:1076300010331B68019A029905989847034618462B
:1076400007B05DF804FB00BF0446FF3F00B583B000
:1076500001900091019B012B05D0019B022B02D0D0
:10766000019B002B05D1009B4FF400525A60002370
:1076700006E001F0A3F80246092313604FF0FF3340
:10768000184603B05DF804FB00BF704700BF7047A9
:1076900008B5FFF7FBFFFFF7F7FFFAF713FE034606
:1076A000184608BD10B485B00190114B1B680393B8
:1076B0000F4B1A68019B13440293EFF308831C4697
:1076C00023461A46029B9A4294BF01230023DBB251
:1076D000002B05D0074B0C221A604FF0FF3303E05C
:1076E000034A029B1360039B184605B010BC704709
:1076F0009C40FF3F9853FF3F00B583B00190019B32
:10770000002B01D0FDF79AFCFEE700BF00B583B067
:1077100001900021019802F01DFE00BF03B05DF84A
:1077200004FB00BF00B583B00190019801F0A8F9F7
:107730000346184603B05DF804FB00BF00B585B0F2
:107740000390029101920093039B019A02991846BB
:1077500000F03CF8039B40330099184600F05EF9B6
:10776000064A039B1A60064A039B1A64054A039B58
:107770005A64039B184605B05DF804FB18E5100039
:1077800030E5100064E5100000B583B00190019B66
:10779000184600F08DF80346184603B05DF804FB68
:1077A000A0F14000FFF7F0BF00B583B00190009159
:1077B000019B0099184600F089F80346184603B06B
:1077C0005DF804FBA0F14000FFF7EEBF30B585B0D7
:1077D000039002910192164A039B1A60039B0022B8
:1077E0005A60039B00229A60039B0C3301241D46C0
:1077F000B4F1FF3F06D000212846FFF7DBF918352A
:10780000013CF5E7039B4FF41652DA63039B043304
:10781000019A02991846FEF71DFC039B0433039A54
:1078200004491846FEF7D6FD039B184605B030BD47
:107830004CDF10007D78100000B585B003900291F8
:10784000009313468DF80730039B181D9DF8072001
:10785000009B0299FEF700FD00BF05B05DF804FB38
:1078600000B583B00190019B04331846FEF774FD08
:107870000346184603B05DF804FB00BF00B585B0B1
:1078800001900B468DF80330019B03939DF8032074
:1078900013465B001344DB000833039A134404339C
:1078A0001846FFF795F900BF05B05DF804FB00BF6F
:1078B00000B583B00190019B04331846FEF778FDB4
:1078C0000346184603B05DF804FB00BF00B583B063
:1078D00001900091019B043300991846FEF754FD76
:1078E000009B184603B05DF804FB00BF00B587B0ED
:1078F0000590049103920293164A059B1A60059B1A
:1079000000225A60059B08229A60059B0022DA60DB
:10791000059B114A1A61059B181D089B0093029B49
:10792000039A0499FEF7F6FD059B181D059B9968BF
:10793000059BDA680023FEF7D7FE059B1A1D059B01
:107940001B6919461046FEF761FF059B184607B0F4
:107950005DF804FB74E5100040420F0000B585B0EF
:10796000039002910192039B029A9A60039B019AF1
:10797000DA60054B00221A60039800F01BF800BF84
:1079800005B05DF804FB00BF0447FF3F00B583B0BE
:1079900001900091019B009A1A61054B00221A6028
:1079A000019800F007F800BF03B05DF804FB00BFCA
:1079B0000447FF3F00B583B001900E4B1A68019B4E
:1079C0009A4213D0019B181D019B9968019BDA68AC
:1079D0000023FEF789FE019B1A1D019B1B691946B6
:1079E0001046FEF713FF034A019B136000BF03B06C
:1079F0005DF804FB0447FF3F00B583B001900091A0
:107A00000198FFF7D7FF019B043300991846FEF752
:107A100047FF0346184603B05DF804FB00B587B086
:107A200001900091019B00991846FFF7D9F9104A7F
:107A3000019B1A600F4A019B5A60019B00225A6108
:107A400003AB019A0C49184602F018FD03AB0B4931
:107A5000184601F01FF90246019B5A61019B5B69C0
:107A60001846FFF753FE019B184607B05DF804FB6C
:107A700090E51000C4E5100080E5100084E51000DA
:107A800000B583B001900D4A019B1A600C4A019B1E
:107A90005A60019B5B69184600F0FCFE019B18468A
:107AA000FFF7BCF90023002B02D0019800F0D3F8B7
:107AB000019B184603B05DF804FB00BF90E5100081
:107AC000C4E5100000B583B001900091019B5B6993
:107AD000184600F097FF019B5B691946009801F07A
